:020000040800F2
:10000000200B0020CD0100080D260008E921000882
:1000100009260008D90B0008452B00080000000045
:10002000000000000000000000000000392B000864
:10003000C10E000800000000112600083D2B00083A
:10004000E7010008E7010008E7010008E7010008F0
:10005000E7010008E7010008E7010008E7010008E0
:10006000E7010008E7010008E7010008E7010008D0
:10007000E7010008E7010008E7010008E7010008C0
:10008000E7010008E7010008E7010008E7010008B0
:10009000E7010008E7010008E7010008E7010008A0
:1000A000E7010008E7010008E7010008E701000890
:1000B000E7010008E7010008E7010008E701000880
:1000C000E7010008E7010008E7010008E701000870
:1000D000E7010008E7010008E7010008E701000860
:1000E000E7010008E7010008E701000800F002F856
:1000F00000F05DF814A696E8000CB244B344DA456B
:1001000001D100F054F8BAE80F000FA696E83000CD
:10011000A5EB040504EB0607AAEB0704A7F101070A
:100120004FEA15154FEA3414A4F10104AC4201D38F
:1001300000F03DF813F0010F18BFFB1A43F0010364
:1001400000F001F8DBE71847D4420000F442000059
:10015000103A24BF78C878C1FAD8520724BF30C8F3
:1001600030C144BF04680C60704700007047000055
:100170000023002400250026103A28BF78C1FBD8B0
:10018000520728BF30C148BF0B607047662903F093
:100190002C85002070471FB500F0A8FB040000204C
:1001A000002103F00FFAE0601FBD10B510BD00F094
:1001B0009DFC1146FFF7EFFF02F0C6FC00F0BBFC10
:1001C00003B4FFF7F2FF03BC00F0FEFC09488047D0
:1001D00009480047FEE7FEE7FEE7FEE7FEE7FEE729
:1001E000FEE7FEE7FEE7FEE704480549054A064B41
:1001F00070470000412B0008ED000008200500209A
:10020000200B002020070020200700200FB41CB581
:10021000074B06AA7B4469460090059800F01BFB3B
:100220000020694600F02AFB1CBC5DF814FB0000AE
:10023000650600002DE9F0474FF0000A89460446A4
:10024000C0F820A02046E1688847002876D02528FD
:1002500006D0D4E901219047206A401C2062F1E7D2
:10026000E168204600258847C4F81CA00646002700
:10027000C4F818A02A2E09D0304603F09BF938B3F1
:1002800004EB8708303EC8F8186019E059F8041BE1
:10029000204604EB87029161E1688847012F0646FA
:1002A00018D1E069002820DA25F020051DE0D8F8F3
:1002B000180000EB800006EB40003038C8F818004A
:1002C0002046E1688847064603F074F90028EED11D
:1002D000012F0AD02E2E08D12046E16888477F1CC6
:1002E0000646022F45F02005C4DBA069002803DA8A
:1002F000404245F00105A061E80701D025F0100556
:10030000B6B1A6F14100192802D8203645F400659F
:100310004A463146204625604D46FFF737FF58B123
:10032000012806D0ED1D25F0070000F1080989E736
:1003300004E005F1040985E730468AE7206ABDE854
:10034000F087032A40F2308010F0030C00F0158093
:1003500011F8013BBCF1020F624498BF11F801CBC8
:1003600000F8013B38BF11F8013BA2F1040298BF2D
:1003700000F801CB38BF00F8013B11F0030300F097
:100380008282083AC0F0088051F8043B083A51F8DC
:1003900004CBA0E80810F5E7121D5CBF51F8043B40
:1003A00040F8043BAFF30080D20724BF11F8013BB3
:1003B00011F801CB48BF11F8012B24BF00F8013B15
:1003C00000F801CB48BF00F8012B704702F0FF0393
:1003D00043EA032242EA024200F002B84FF0000270
:1003E00000B5134694469646203922BFA0E80C502B
:1003F000A0E80C50B1F12001BFF4F7AF090728BF06
:10040000A0E80C5048BF0CC05DF804EB890028BF81
:1004100040F8042B08BF704748BF20F8022B11F0AA
:10042000804F18BF00F8012B704770477047704726
:100430002DE9FF4F0C461E464FF0FF378BB0D2E937
:100440000001DDF860800A908A46C1F30A5505B9BB
:100450003D46002108464FF00000BAF1000F00F4BD
:10046000400005DA00EB80004FF4400101EA500043
:100470004FEA9059B9F1010F00DDB9460A9850EAE8
:100480004A000ED044F61050A5F2FF3545432F1414
:10049000B8F1000F1ED07542291E1EDDC9F1000201
:1004A0001CE0B8F1010F4FF0000001D0302103E053
:1004B000F24305E02154401CB042FBDB30460022F1
:1004C000002121540B99C1F80880C1E900200FB028
:1004D000BDE8F08FBD1B6D1CDEE74A4600DA6942BD
:1004E00006A800F08DFA06AB93E8070003AB83E89B
:1004F000070050460A9902F081FC8DE80700A0F53C
:1005000000501F3800900398002D0ADD42F21F01B1
:100510004A460844002303A90390684602F0EAFE15
:1005200009E0A0F500504A461F38002303A90390B4
:10053000684602F0F4FE8DE807000004000C03D0CA
:100540004FF0FF30410800E01046B8F1000F03D033
:100550000022009215461EE0751E05D400F0CAF96F
:10056000303262556D1EF9D5B3460122084302D0E0
:1005700000227F1C04E02078302801D100227F1E59
:10058000002A099784D01DE0112D07DA00F0B2F996
:10059000303262556D1C50EA0102F5D1084302D099
:1005A0000098C8B10EE00021681E05E0235C625C83
:1005B00063542254401E491C8142F7DBAB46A81B02
:1005C000401E0990002004F80B000B98099AC0F80F
:1005D0000880C0E9002B7AE711264FF0000857E7A2
:1005E0002DE9F04F88460446D21D22F0070191B054
:1005F000D1E90001CDE90A0102F0C8FF02460B98DB
:10060000C00F01D02D2007E02068810701D52B20E5
:1006100002E0202101EAC000032A099001D0072A44
:1006200005DB03464146204600F0AAF90BE120789D
:10063000800601D5E06900E00620B8F1650F81462B
:1006400006D0B8F1660F18D0B8F1670F70D131E05D
:100650000020B9F1110F009001DB112301E009F135
:1006600001030AAA01A90CA8FFF7E2FEDDE90C705C
:10067000002609F10105834647E001204B46009022
:100680004FF000470AAA01A90CA8FFF7D1FEDDE947
:100690000DB00C995D46002610B909F101000D1846
:1006A000B9EB050003D4C0F1FF3609F10105A5EB54
:1006B00009002BE0B9F1010F01DA4FF00109002028
:1006C000B9F1110F0090484601DD112300E0034607
:1006D0000AAA01A90CA8FFF7ABFEDDE90C704D4694
:1006E00000268346207800070AD4AB4500DA5D4631
:1006F00001A8012D04DD411911F8011C302907D092
:100700004F4502DA17F1040F04DA012082460FE0A8
:100710006D1EEEE7002F02DCED1B3E4403E0781C6B
:10072000A84200DD7D1CB81B00F1010A4FF0004714
:100730002078000703D4AA4501DB4FF0FF3A0021DF
:10074000B7F1004F0DF143088DF8431024D002207B
:100750002B23002F01DA7F422D230A21021EA0F154
:10076000010000DC5FB197FBF1FC97FBF1F201FBAC
:100770001C7C17460CF1300C08F801CDEEE7A8F10F
:10078000010003702188090501D5452100E065219C
:10079000A0F1010800F8011C09980FA9A1EB0807B6
:1007A000FF1D00B10120411901EBEA70A169384435
:1007B000081A401EA0612078C00602D42046AFF37C
:1007C0000080099828B1D4E901219047206A401C93
:1007D00020622078C00622D52046AFF300801EE0BC
:1007E000002E04DBB34502DD01A8805D00E030206F
:1007F000D4E901219047206A401C2062761CAAF1AE
:1008000001005FEA000A0AD100F070F8C0680168D0
:10081000405CD4E901219047206A401C2062281ED8
:10082000A5F10105DCDC07E0D4E9012118F8010B92
:100830009047206A401C2062381EA7F10107F3DCB4
:100840002046AFF30080032011B041E601694A1C45
:1008500002610878704700B58FB0CDE90131002101
:10086000059105497944CDE9031011466846FFF723
:10087000E1FC0FB000BD0000E5FFFFFF0A6802F8D1
:10088000010B0A60704710B5203AC0F00B80B1E848
:100890001850A0E81850B1E81850A0E81850203AB5
:1008A000BFF4F5AF5FEA027C24BFB1E81850A0E8BE
:1008B000185044BF18C918C0BDE810405FEA827CD8
:1008C00024BF51F8043B40F8043B08BF7047D207EF
:1008D00028BF31F8023B48BF11F8012B28BF20F890
:1008E000023B48BF00F8012B7047000000487047EA
:1008F0003800002030B5B0F10A0271F100034FEA70
:10090000900E4EEA817EB0EB0E0061EB91014FEA52
:10091000101E4EEA017E10EB0E0041EB11114FEA62
:10092000102E4EEA016E10EB0E0041EB11214FEA42
:10093000104E4EEA014E10EB0E0041EB11414018F3
:1009400041F100014FEAD00040EA41704FEAD10185
:100950004FEA810444EA907410EB800544EB0104F3
:100960006D1944EB0404521BA3414FF0000348BF30
:100970000A3200D530BD401C41F1000130BD0000FD
:100980002DE9F0411F46044603260168072A01F4B9
:10099000006004DB08B116A505E016A503E008B168
:1009A00015A500E015A521F010002060A069C01E6B
:1009B000A0610FB1401EA0612046AFF300804FB18F
:1009C000D4E9012138469047206A401C2062C01CAF
:1009D000206206E0206AFAE7D4E9012115F8010B4C
:1009E0009047761EF8D22046AFF30080BDE8F08134
:1009F0004E414E006E616E00494E4600696E6600C3
:100A00002DE9F047814616468AB0354878440DC82E
:100A10008DE80D0032487844801C03AC0DC884E892
:100A20000D0041F69B300844372190FBF1F290FB1A
:100A3000F1F5A5F1800501FB12041B3C02D56442CF
:100A4000012000E00020DFF898A080460027FA444B
:100A5000AAF1BE0A0EE0E0070AD03246684607EB6C
:100A6000470101230AEB810102F059FC8DE80700E0
:100A700064107F1C002CEED1194F7F44AE3F19E06B
:100A8000E80715D007EB04100DF1180A90E80E00E6
:100A90008AE80E00C068F04201D1981908903246E9
:100AA000012306A903A802F03AFC03AB83E8070080
:100AB0006D10641C002DE3D14FF0010332466946EE
:100AC000B8F1000F03A802D002F014FC01E002F01C
:100AD00026FCC9E90001C9F808200AB0BDE8F08782
:100AE0005C32000000487047180000207546FFF790
:100AF000F9FFAE4605006946534620F007008546DB
:100B000018B020B5FFF770FBBDE820404FF000069D
:100B10004FF000074FF000084FF0000BAC46ACE878
:100B2000C009ACE8C009ACE8C009ACE8C00921F0D4
:100B300007018D46704710B50446AFF3008020468C
:100B4000BDE81040FFF73CBB4FF0013C50F8042BD0
:100B500051F8043B9A4221D1A2EB0C03934313EAD0
:100B6000CC1317D150F8042B51F8043B9A4215D1FD
:100B7000A2EB0C03934313EACC130BD150F8042BD4
:100B800051F8043B9A4209D1A2EB0C03934313EAB8
:100B9000CC13DBD04FF00000704700BFD01A01BA71
:100BA000B1FA81F101F0180122FA01F0CB40DBB279
:100BB000C0B2C01AC1F120012CFA01F3D11A91433D
:100BC00011EAC311E6D1704701491820ABBEFEE718
:100BD0002600020070470000FEE700002DE9F04FFC
:100BE00087B0834640F6004600208846C4F20106DE
:100BF0008DF818000590012103900220CDE9011124
:100C0000049001A9304600F071F93046012100221C
:100C100000F07AFA142000F055F930460121012243
:100C200000F072FA40F2D447C2F2000797F83D0094
:100C300018B197F83D00012805D140F2D440C2F226
:100C4000000001F0CDF9386800214162416A1D2998
:100C500008D8416A1D2905D8416A1D2902D8416A70
:100C60001E29F3D301200024039001A930460294E9
:100C700000F03CF93046012100F040FAE0B1C8250F
:100C800005E000BF3046012100F038FAA0B1013D77
:100C9000280400F0C9803868446200BF416A002916
:100CA000F0D1416A0029EDD1416A0029EAD1416AB7
:100CB0000029F3D0E6E700BF3046012100F01EFA1C
:100CC000012840F093803046012100F017FAE8B186
:100CD000C824002505E000BF3046012100F00EFACF
:100CE000A0B1013C200400F0AF803868456200BF2D
:100CF000416A0029F0D1416A0029EDD1416A0029F9
:100D0000EAD1416A0029F3D0E6E700BFCDF80080C0
:100D100000240DF114084FF000093046012100F0C5
:100D2000EDF9012846D13868446200BF416A27299D
:100D300008D8416A272905D8416A272902D8416A7B
:100D40002829F3D34FEAD90518F8050001214FEA05
:100D5000400A304608F805A000F0D0F9012804BF89
:100D60004AF0010008F805003046012100F0C6F9FC
:100D7000D0B1C82505E000BF3046012100F0BEF922
:100D800090B1013D28045BD038684462416A002973
:100D9000F2D1416A0029EFD1416A0029ECD1416AC0
:100DA0000029F3D0E8E700BF09F10109B9F1280FE4
:100DB000B3D14DE0C82505E03046012100F09EF991
:100DC0000128B0D0013D280432D03868446200BF09
:100DD000416A0029F0D1416A0029EDD1416A002918
:100DE000EAD1416A0029F3D0E6E700BFC824002514
:100DF00007E000BF3046012100F080F901283FF4F0
:100E000062AF013C200417D038684562416A00296E
:100E1000F0D1416A0029EDD1416A0029EAD1416A45
:100E20000029F3D0E6E700BF032007B0BDE8F08F4C
:100E3000062007B0BDE8F08F042007B0BDE8F08FB2
:100E4000072007B0BDE8F08F052007B0BDE8F08FA0
:100E50009DF814009DF815609DF816709DF8178098
:100E600032183A449DF818104244D2B2914223D12C
:100E700002F07EFD8146304602F07AFD0026C4F283
:100E80002016314602F07EFC494602F0E3FBCBF827
:100E90000000384602F06CFD0546404602F068FD51
:100EA000314602F06FFC294602F0D4FB009908603D
:100EB000002007B0BDE8F08F022007B0BDE8F08F3A
:100EC00070470000B0B5044600F024F9054640F232
:100ED0000000C2F200000078611C18BF044400BF8B
:100EE00000F018F9401BA042FAD3B0BD2DE9F04F35
:100EF00082B00E68002E00F0FD8041F20042C4F284
:100F00000102042340F2004E904208BF03234FF633
:100F1000FF7CC4F2010E009300240123C1F2100CE7
:100F20004FF0000A4FF000094BE000BF41F2000211
:100F3000C4F20102009F904208BF022704F00C0394
:100F40000F229A402BEA020207FA03F34FEA9A05AE
:100F50001A4346F825204E6840F20C45F202DEF8AE
:100F6000082054BF22EA080242EA0802C4F201053E
:100F7000CEF808202A68B30254BF22EA080242EAE7
:100F800008022A60B303DEF8042054BF22EA0802F4
:100F900042EA0802F303CEF80420DEF800204FF006
:100FA000010354BF22EA080242EA0802CEF80020F8
:100FB0000E680AF1010A36FA0AF204F1040400F09C
:100FC000998003FA0AFB16EA0B08F1D04E686645D1
:100FD00012DC122E56D8DFE806F0350B4D49555578
:100FE000555555555555555555555545510000BF05
:100FF000D1F80C9046E000BF4FF6FF72C1F221021B
:1010000096420FDC0022C1F2110296421AD0002251
:10101000C1F21202964215D00022C1F2210296427C
:1010200010D02FE00022C1F2220296420AD0002204
:10103000C1F23102964205D00022C1F2320296423C
:1010400020D100BF8A684AB1012A14BFC0F814B089
:10105000C0F810B04FF0080914E000BF4FF00409C9
:1010600010E000BFCA6802F104090BE04FF000096C
:1010700008E000BFCA6802F1080903E0CA6802F18B
:101080000C0900BF02462646B8F5807F24BF043213
:10109000203E17680F25B54027EA050509FA06F630
:1010A00035431560CA79D2067FF582AF41F2180345
:1010B000C4F202031A68AEF57E7642F001021A60AD
:1010C0001A6802F001020192019A2AF0030256F80E
:1010D00002B040F60002C4F20102904208D040F68D
:1010E0000042C4F2010290427FF420AF012725E7BD
:1010F000002723E702B0BDE8F08F000080680840B9
:1011000018BF012070470000002A08BF09040161D0
:101110007047000040F21C50C2F2000000687047A7
:10112000002804BF01207047F0B581B0044690F854
:101130003D0028B9002084F83C00204600F09AFACF
:10114000242084F83D002068016821F0010101603D
:10115000016841F400410160016821F4004101602F
:1011600000F040FC636848F2A16CC0F2010C40F64C
:101170000011C0F23D0163453CBF48F28041C0F21E
:101180001E01884202D2012001B0F0BD4DF68361FC
:10119000C4F21B31A0FB01122168970CD1F804E0C6
:1011A0004FF496762EF03F0545EA92454D60774321
:1011B00048F638160D6AC0F24106A7FB067625F000
:1011C0003F07634538BF960C721C3A430A62CA69EE
:1011D00048F2A0664CF6FF77C0F20106B34222EA5D
:1011E00007020BD801385B00B0FBF3F001306FF35E
:1011F0001F30042898BF04201BE000BFA7680138F7
:1012000057B119277B43B0FBF3F001306FF31F3068
:1012100070B100F5804007E003EB4303B0FBF3F04F
:1012200001306FF31F3018B100F5004001E000BF3E
:1012300001201043C8610868D4E9072320F0C000EA
:10124000104318430860886848F2FF3204F10C0725
:1012500090438CCF18431043A6698860C86820F07B
:10126000FF0038433043C860086840F00100086060
:1012700000202021206484F83D10206384F83E0083
:1012800001B0F0BD2DE9F04F83B01E46924688466E
:101290000446FFF73FFF94F83D10202924D1216830
:1012A000054600BF886980071AD5FFF733FF401B4A
:1012B00021681A28F6D388698007F3D500202021F9
:1012C000206384F83D1084F83E00216C41F0200139
:1012D000216484F83C00022003B0BDE8F08F00BF19
:1012E00094F83C00012803D1022003B0BDE8F08F40
:1012F0004FF0010984F83C900868C00703D10868E2
:1013000040F0010008600868002720F400600860D1
:10131000242084F83D000020CFF6FF702764E062AF
:1013200008F0FE08BAF1010F88BFD1464FF0A00ABD
:101330004FF0200B04E000BF01374F4500F0A280C2
:101340000868002240F48070086020464FF00111C8
:101350003346009500F0A8FF2168002856D1C1F857
:101360001080FFF7D7FE21684B694A6994F83D5019
:10137000A02D054605D013F0020008BF12F48060CE
:101380001AD084F83DB048690A68800742F40072B8
:101390000A6045D46FF48060486100BF88698007A7
:1013A000CAD5FFF7B7FE401B21681A28F6D3886913
:1013B0008007F3D54AE000BFB6B100BFFFF7AAFE31
:1013C000401BB04288BF84F83DA021684A69486943
:1013D00094F83D30A02BD4D012F0020208BF10F4D4
:1013E0008060EBD0CDE700BFFFF794FE84F83DA00E
:1013F00021684A69486994F83D30A02BC1D012F0A9
:101400000202BED110F48060EED0BAE70868C005D1
:1014100044BF4FF400702064032003B0BDE8F08F98
:1014200000200290486902908869029002988869B9
:1014300001E000BF806980071AD5FFF76BFE411BF2
:1014400020681A29F6D381698907F3D50020202165
:10145000206384F83D1084F83E00216C41F02001A7
:10146000216484F83C00012003B0BDE8F08F00BF88
:10147000202084F83D00002084F83C0003B0BDE843
:10148000F08F00BF202084F83D00002084F83C004D
:10149000012003B0BDE8F08F2DE9F04383B01E4674
:1014A000174689460446FFF735FE94F83D1020297B
:1014B00024D10546206800BF816989071AD5FFF746
:1014C00029FE411B20681A29F6D381698907F3D5C3
:1014D00000202021206384F83D1084F83E00216C18
:1014E00041F02001216484F83C00022003B0BDE8F3
:1014F000F08300BF94F83C10012903D1022003B00F
:10150000BDE8F083012184F83C100168C90703D1CC
:10151000016841F001010160016840F2020821F414
:1015200000610160212184F83D10102184F83E10F3
:101530000021216467626685618DC0F20108218502
:10154000A8F10211E162E16A0A9E11F5803F18BF1D
:1015500001291DD1016841F48071016020464FF0DE
:10156000011100223346009500F09EFE50B1206824
:101570000068C00544BF4FF400702064012003B030
:10158000BDE8F0832069B0F5804F07D1FE2015E05B
:101590000829DFD0216B1229DCD0DFE7062000EA22
:1015A000D9102168F030086108F106012046324662
:1015B0002B4600F05FFF0028E0D1FF20216800EA01
:1015C000090008612046414632462B4600F052FF92
:1015D0000028D3D1002002902068416902918069DF
:1015E0000290029806E000BF204631462A4600F0ED
:1015F000FDFD18BB208D68B3204631462A4600F019
:10160000A5FFD8B9606A2168024612F8013B0B6158
:101610006262628D013A6285228D531E23854F6975
:101620007F07E1D51B04DFD0437802300B61606295
:10163000608D01386085901E2085D5E7206C0428D8
:101640009CD12068016841F400710160012003B061
:10165000BDE8F0832068016841F40071016020203A
:1016600084F83D00002084F83E0084F83C0003B07C
:10167000BDE8F08310B586B0016845F20040C4F2C1
:10168000000081424FF00001CDE90411CDE90211C3
:1016900002D006B010BD00BF41F21804C4F202042B
:1016A000216800F5384041F008012160216801F00F
:1016B000080101910199C021029112210391032196
:1016C000059102A9FFF712FC606840F40010606009
:1016D000606800F400100190019806B010BD000091
:1016E00040F2000040F21C51C2F20000C2F20001C0
:1016F00000780A68104408607047000080B542F224
:101700000000C4F20200016841F0100101600320F2
:1017100000F07AF80F2000F005F800F027F800201C
:1017200080BD000070B540F20006C2F2000640F233
:1017300010013278C2F200014FF47A730968B3FBEA
:10174000F2F20446B1FBF2F1084600F05FFB0F2C09
:101750004FF0010508D838B94FF0FF30214600227C
:10176000002500F025F87460284670BD82B041F273
:101770001800C4F202000168042241F00101016076
:10178000016801F0010101910199416841F0805126
:101790004160406800F08050009000980420C4F23E
:1017A0000100016862F31A61016002B07047000035
:1017B00010B54EF60C5CCEF2000CDCF80030C3F332
:1017C000022E8EF00704042C28BF0424BEF103036C
:1017D0004FF0FF3E0EFA04F438BF0023A1439940B6
:1017E0000EFA03F39A43114300F00F0200F1604335
:1017F0000901043A03F564436244002848BF02F13A
:101800000C03197010BD00004EF60C51CEF2000111
:101810000A684FF6FF031A4060F30A2242F0806024
:1018200040F0FD7008607047002804BF0120704739
:101830002DE9F04381B042F20008C4F202080446E8
:10184000D8F800000D4600F0070081420CD9D8F806
:10185000000020F007002843C8F80000D8F8000076
:1018600000F00700A8426CD1206841F2040981070A
:10187000C4F2020917D5410705D5D9F8001041F483
:10188000E061C9F80010010705D5D9F8001041F44E
:101890006051C9F80010D9F80010A26821F0F001D9
:1018A0001143C9F80010C00742D1D8F8000000F079
:1018B000070085420CD2D8F8000020F0070028432A
:1018C000C8F80000D8F8000000F00700A84238D19E
:1018D0002068410707D5D9F80010E26821F4E061DB
:1018E0001143C9F80010000708D5D9F80000216994
:1018F00020F4605040EAC100C9F80000D9F8002087
:1019000002F00C00082841F20020C0F27A004DD10C
:1019100044F20A43C2F38341C0F60003595CD20388
:1019200038D440F60010C0F23D0048433EE000BF0E
:10193000606859F8041C022808D0012826D18903C0
:1019400006D4012001B0BDE8F08300BF8901F8D5BD
:10195000D9F8001021F003010843C9F80000FFF78F
:10196000D9FB064641F28837D9F80000616800F0DB
:101970000C00B0EB810F98D0FFF7CCFB801BB84276
:10198000F2D9032001B0BDE8F08300BF8907D8D5A4
:10199000DEE700BFD9F8002044F20843C2F340421A
:1019A000C0F600039A5C4843B0FBF2F0D9F800108F
:1019B00043F68442C1F30311C0F60002515C40F2C9
:1019C000100220FA01F140F20400C2F200000068A7
:1019D000C2F200021160FFF7A5FE002001B0BDE8D1
:1019E000F083000040F2100041F20401C2F2000056
:1019F000C4F202010068096843F69442C1F302216F
:101A0000C0F60002515CC84070470000002804BFC7
:101A1000012070472DE9F04182B00446007841F280
:101A20000006C007C4F202060CD0706800F00C007B
:101A3000042840F081803068800303D56068002866
:101A400000F04681207880071BD5706810F00C0FDD
:101A500009D0706800F00C00082840F0878070689A
:101A6000C00300F183803068800703D52069012816
:101A700040F02E813068616920F0F80040EAC10032
:101A800030602078000713D4207840072CD4E56913
:101A9000002D00F01881706800F00C00082840F05C
:101AA000A780012D40F00481012002B0BDE8F08143
:101AB000A069002800F084800020C4F242200121A7
:101AC000C0F88014FFF726FB054600BF706A800748
:101AD00000F1B280FFF71EFB401B0228F6D903205D
:101AE00002B0BDE8F08100BFF0695FEAC00808D429
:101AF000F06940F08050F061F06900F08050009093
:101B0000009847F20007C4F200073868C00549D4BE
:101B1000386840F480703860FFF7FCFA054600BF73
:101B20003868C0053ED4FFF7F5FA401B6428F7D9A2
:101B3000032002B0BDE8F081706800F00C000828B6
:101B400003D17068C0033FF576AF61683068002943
:101B500000F00C81B1F5A02F00F00081B1F5803FBD
:101B600040F01A8140F480301CE100BF2069002859
:101B700040F20000C4F2422000F0888001210160A0
:101B8000FFF7C8FA054600BF306880073FF572AF1F
:101B9000FFF7C0FA401B0228F6D9032002B0BDE8C7
:101BA000F08100BFE168306A002900F09D800529BE
:101BB00000F09280012940F0AF8040F00100B1E0D8
:101BC0000020C4F242200021C0F88014FFF7A2FADE
:101BD000054600BF706A80077FF556AFFFF79AFA97
:101BE000401B0228F6D9032002B0BDE8F08100BFF7
:101BF0000027C4F2422700203866FFF78BFA022D37
:101C000005460DD13068800140F1DE80FFF782FA91
:101C1000401B02284FF00300F4D902B0BDE8F08168
:101C2000306880014FD5FFF775FA401B02284FF04E
:101C30000300F5D9F1E700BF40F21000C2F2000046
:101C4000006844F6D351C1F26201A0FB0101480AC9
:101C5000019000BF00BF0198411E002801913FF490
:101C600013AF00BF0198411E002801913FF40CAF53
:101C700000BF0198411E002801913FF405AF00BF4D
:101C80000198411E00280191E4D1FDE60021016088
:101C9000FFF740FA054600BF306880077FF5F1AED8
:101CA000FFF738FA401B02284FF00300F4D9B4E7DD
:101CB0007068216A00F480328A4209D1616A00F4B6
:101CC0007010884204D1002002B0BDE8F08100BF4E
:101CD000012002B0BDE8F08140F004003062306ABB
:101CE00040F001001EE000BF20F001003062306AC9
:101CF00020F004003062FFF70DFA054641F2883704
:101D0000306A800720D5FFF705FA401BB8424FF034
:101D10000300F5D981E700BF20F001003062306A8E
:101D200020F004003062FFF7F5F9054641F28837EC
:101D3000306A800708D4FFF7EDF9401BB842F7D9A5
:101D4000032002B0BDE8F081B8F1000F3FF59FAE6F
:101D5000F06920F08050F06199E600BF40F48020E7
:101D60003060306840F480301CE000BF20F48030E8
:101D70003060306820F480203060FFF7CBF90546F2
:101D8000306880037FF55EAEFFF7C4F9401B64281E
:101D90004FF00300F4D940E720F480303060306821
:101DA00020F480203060FFF7B5F9054630688003E5
:101DB0003FF548AEFFF7AEF9401B6428F6D9032083
:101DC00002B0BDE8F08100BF206AB0F5803F05D1C8
:101DD0007168A26821F40031114371607168626A10
:101DE00021F4741111430843706001203866FFF735
:101DF00091F90446306880013FF565AFFFF78AF935
:101E0000001B02284FF00300F4D906E7411E002012
:101E1000B0EB116F1CBF012070474EF21002CEF2E2
:101E2000000251604EF62351CEF20001F0230B70F8
:101E3000072190601160704790F83C20012A4FF014
:101E4000020236D010B580F83D200268D2F804E0D6
:101E5000D2F808C00C682EF07003234340F2FF74E0
:101E6000C4F20004A24253600ADCB2F1804F13D0E6
:101E700040F20043C4F200039A420DD011E000BFCB
:101E800042F60043C4F201039A4205D040F6000333
:101E9000C4F200039A4204D149682CF0800319432C
:101EA00091600121002280F83D1080F83C20BDE8BF
:101EB0001040104670470000002804BF0120704702
:101EC00010B590F83D1031B9002180F83C1004465F
:101ED00000F070F82046022180F83D10016840F2C1
:101EE000FF740B68C4F2000442F6004CA142C4F235
:101EF000010C15DCB1F1804F1AD040F20042C4F25F
:101F00000002914214D0A14218DCB1F1804F1DD0E3
:101F100040F20042C4F20002914217D01AE000BF22
:101F2000614505D040F60002C4F200029142EAD1B8
:101F3000826823F070031343A142E6DD614505D0BA
:101F400040F60002C4F20002914203D1026923F478
:101F500040731343846923F08002D0F804E0C3681F
:101F6000224361450A60CB62C1F828E002D1426990
:101F7000CCF8302001224A610B69DB0703D00B69E2
:101F800023F001030B6180F8462080F83E2080F8A2
:101F90003F2080F8402080F8412080F8422080F8DF
:101FA000432080F8442080F8452080F83D20002020
:101FB00010BD00000068B0F1804F18BF704781B0BD
:101FC00041F21C00C4F20200016841F0010101600D
:101FD000006800F001000090009801B07047000018
:101FE00090F83D1001291CBF01207047022180F8A4
:101FF0003D10006840F2FF71C4F20001884209DC24
:10200000B0F1804F12D040F20041C4F2000188428A
:102010000CD012E042F60041C4F20101884205D022
:1020200040F60001C4F20001884206D1816801F047
:102030000701062904BF00207047016841F0010133
:10204000016000207047000090F83C20012A4FF00A
:1020500002026CD080B580F83D20D0F800C04FF669
:102060007772DCF8083023EA0202CCF808200B680B
:102070004F2B29DC1F2B45DD202B46D0302B44D0A5
:10208000402B40F0AF80D1F804E0C968DCF8203084
:10209000DCF8202022F00102CCF82020DCF8182007
:1020A00022F0F00242EA011123F00A0242EA0E0293
:1020B000CCF81810CCF82020DCF8081041F04701CB
:1020C00021F0300128E000BF6F2B33DDB3F5005F56
:1020D00074D0B3F5805F21D0702B40F08380D1E9BC
:1020E00001E3C968DCF8082043EA0E0322F47F42CA
:1020F00043EA01211143CCF80810DCF8081041F044
:10210000770109E00BB1102B6CD1DCF8081021F03D
:102110007001194341F00701CCF808100022012199
:1021200080F83D10002180F83C10BDE8804010464A
:10213000704700BF502B21D0602B53D1D1F804E061
:10214000C968DCF82030DCF8202022F01002CCF83E
:102150002020DCF8182022F4704242EA013123F0FA
:10216000A00242EA0E12CCF81810CCF82020DCF8BD
:10217000081041F0670121F01001CDE7D1F804E02B
:10218000C968DCF82030DCF8202022F00102CCF80D
:102190002020DCF8182022F0F00242EA011123F09E
:1021A0000A0242EA0E02CCF81810CCF82020DCF823
:1021B000081041F0570121F02001ADE7D1E901E31A
:1021C000C968DCF8082043EA0E0322F47F4243EAA0
:1021D00001211143CCF80810DCF8081041F48041CB
:1021E0009AE700BF01229AE7FEE7000070B5036896
:1021F000044653F8140F400711D40E46481C29D04A
:1022000086BB00BF1868400527D4FEF783FF23680C
:1022100053F8140F400737D518684007F2D500204F
:1022200070BD00BF18684007F9D41868400514D481
:1022300018684007F3D4186840050ED418684007A2
:10224000EDD41868400508D4186840074FF0000026
:1022500048BF70BD18684005E4D56FF48060186011
:10226000042012E0154603E053F8140F4007D6D4BB
:1022700018684005F1D4FEF74DFF401B2368B042BB
:10228000F2D958694007EFD4202000212022216391
:1022900084F83D2084F83E10226C10432064012015
:1022A00084F83C1070BD00002DE9F041054600683F
:1022B0001E46144601F47F0201338FB242D0DDF88E
:1022C0001880B2F5803F40F0878040693840C01BDD
:1022D000B0FA80F04009844240F0C8804EB924E052
:1022E00040693840C01BB0FA80F04009844240F099
:1022F000BD80FEF70FFFA0EB08012868B142EFD9BF
:1023000041693940C91BB1FA81F149098C42E7D1D1
:102310009BE000BF40693840C01BB0FA80F0400924
:1023200084424FF0000040F0A280FEF7F3FE2868E0
:1023300041693940C91BB1FA81F149098C42E9D19F
:1023400083E000BFB2F5803F24D100BF416939402E
:10235000C91BB1FA81F149098C4240F0878041697B
:102360003940C91BB1FA81F149098C4240F07E80A5
:1023700041693940C91BB1FA81F149098C4275D1D3
:1023800041693940C91BB1FA81F149098C42DDD05C
:102390006CE000BF81693940C91BB1FA81F149097C
:1023A0008C4263D181693940C91BB1FA81F1490975
:1023B0008C425BD181693940C91BB1FA81F149096D
:1023C0008C4253D181693940C91BB1FA81F1490965
:1023D0008C42DFD04AE000BF80693840C01BB0FAB1
:1023E00080F04009844241D146B923E080693840F9
:1023F000C01BB0FA80F04009844237D1FEF78AFE54
:10240000A0EB08012868B142F0D981693940C91BA5
:10241000B1FA81F149098C42E8D116E0806938406F
:10242000C01BB0FA80F0400984424FF0000018BF92
:10243000BDE8F081FEF76EFE286881693940C91B4E
:10244000B1FA81F149098C42E8D1002020212863AA
:1024500085F83D1085F83E00296C41F02001296483
:1024600085F83C000120BDE8F08100BF0020BDE8F8
:10247000F0810000F0B581B0044600681D46436954
:102480008FB203EA0701B94202D1002001B0F0BDCA
:102490004169164601323CD0490512D47EB300BFD3
:1024A000FEF738FE411B2068B14203D9416939402B
:1024B000B9422BD141693940B942E6D04169490559
:1024C000EED5016841F4007101606FF480614161F3
:1024D000042000212022216384F83D2084F83E104E
:1024E000226C1043206484F83C10012001B0F0BD40
:1024F00041693940B942C8D041694905E1D4FEF784
:1025000009FE206841693940B942F1D02020E0E756
:1025100041694905D5D441693940B942B5D04169CD
:102520004905CED441693940B942AED04169490527
:10253000C7D441693940B942A7D041694905C0D4DF
:1025400041693940B942E3D19FE7000070B50368A3
:10255000044653F8140F000611D40E46481C29D027
:1025600086BB00BF1868400527D4FEF7D3FD23685B
:1025700053F8140F000637D518680006F2D500206E
:1025800070BD00BF18680006F9D41868400514D45F
:1025900018680006F3D4186840050ED418680006C1
:1025A000EDD41868400508D4186800064FF0000004
:1025B00048BF70BD18684005E4D56FF480601860AE
:1025C000042012E0154603E053F8140F0006D6D499
:1025D00018684005F1D4FEF79DFD401B2368B0420A
:1025E000F2D958690006EFD420200021202221636F
:1025F00084F83D2084F83E10226C104320640120B2
:1026000084F83C1070BD0000FEE70000FEE700000B
:102610007047000080B50246002840F28000C2F2F8
:1026200000004FF4806118BFFF22FDF7CFFE80BD90
:1026300040F27802C2F200025080918070470000A0
:102640002DE9F04182B040F28040C2F200007821D2
:10265000012244F62063FEF715FE4FF0000418B186
:10266000204602B0BDE8F08140F280454FF42E4094
:10267000C2F20005ADF806000A260DF10602284652
:10268000782102230096FEF707FF4FF400580DF162
:102690000602284678210223ADF806800096FEF750
:1026A000FBFE4FF480570DF10602284678210223E5
:1026B000ADF806700096FEF7EFFE4FF43040ADF82F
:1026C00006000DF106022846782102230096FEF747
:1026D000E3FE4FF44840ADF806000DF1060228462F
:1026E000782102230096FEF7D7FE0DF10602284658
:1026F00078210223ADF806400096FEF7CDFE0DF1DD
:102700000602284678210223ADF806700096FEF7EF
:10271000C3FE4FF48040ADF806000DF106022846D6
:10272000782102230096FEF7B7FE4FF40140ADF882
:1027300006000DF106022846782102230096FEF7D6
:10274000ABFE4FF47F40ADF806000DF106022846BF
:10275000782102230096FEF79FFE4FF42140ADF84A
:1027600006000DF106022846782102230096FEF7A6
:1027700093FE4FF42640ADF806000DF10602284600
:10278000782102230096FEF787FE4FF42840ADF82B
:1027900006000DF106022846782102230096FEF776
:1027A0007BFE4FF47C50ADF806000DF10602284682
:1027B000782102230096FEF76FFE4FF42440ADF817
:1027C00006000DF106022846782102230096FEF746
:1027D00063FE4FF45340ADF806000DF106022846A3
:1027E000782102230096FEF757FE0DF106022846D7
:1027F00078210223ADF806400096FEF74DFE4FF417
:102800005540ADF806000DF1060228467821022356
:102810000096FEF741FE4FF47040ADF806000DF152
:1028200006022846782102230096FEF735FE4FF473
:102830005940ADF806000DF1060228467821022322
:102840000096FEF729FE4FF40850ADF806000DF192
:1028500006022846782102230096FEF71DFE4FF45B
:102860005A40ADF806000DF10602284678210223F1
:102870000096FEF711FE4FF49050ADF806000DF1F2
:1028800006022846782102230096FEF705FE4FF443
:102890005B40ADF806000DF10602284678210223C0
:1028A0000096FEF7F9FD0DF1060228467821022375
:1028B000ADF806800096FEF7EFFD4FF40D40ADF841
:1028C00006000DF106022846782102230096FEF745
:1028D000E3FD4FF4A050ADF806000DF106022846C6
:1028E000782102230096FEF7D7FD4FF42F40ADF874
:1028F00006000DF106022846782102230096FEF715
:10290000CBFD4FF43850ADF806000DF10602284615
:10291000782102230096FEF7BFFD40F28000C2F24C
:1029200000004FF48061FDF759FD00F0B5F840F26A
:102930007800C2F20000C0F802400124204602B034
:10294000BDE8F0812DE9F04F89B040F27805C2F280
:1029500000056B8891F8008008EB03077F2F05D8EE
:102960009C46AB884E78F7183F2F03D9002009B05A
:10297000BDE8F08F002E009066D02D782038B5FA93
:1029800085F77C09B2FA82F7029078090790002D4A
:1029900018BF01254868121BB2FA82F20190002785
:1029A0005009444608950690CDE9033104E000BF84
:1029B00000240137B74247D2002CF9D0DA1995B27A
:1029C0003F2DF6D80298019B704303EB400030F88E
:1029D00017A002F00700012303FA00F54FF460701E
:1029E00091F8008000EA021B6FEA050E00220597AD
:1029F00003E000BF0132424520D20CEB02061FFA71
:102A000086F9B9F17F0FF5D846EA0B0640F280004F
:102A10000AFA02F1B6B2C2F200000904835D069917
:102A2000DDE9077458BF87EA040103EA0E040029B0
:102A300018BF43EA05048455DCE700BF0499039BF3
:102A40004E78059F4446B4E75FFA88F040F278017B
:102A50006044C2F2000148805DF8240BBDE8F08FAD
:102A60000378002B04BF0020704770B514460D4654
:102A7000461C00BFD8B229462246FFF763FF16F86E
:102A8000011C884204D116F8013B002BF2D1002131
:102A9000BDE87040084670472DE9F04FC1B00DF118
:102AA000040B40F280460BF101094FF000086FF073
:102AB0007F050A24C2F200064FF0000A40F28000AF
:102AC0008035C2F200002F184AF0B0008DF80500E2
:102AD000304678215A4602238DF804800094FEF790
:102AE000DBFC304678215A460223ADF8048000947E
:102AF000FEF7D2FC4FF48050ADF804003046782148
:102B00005A4602230094FEF7C7FC40208DF80400CB
:102B1000484639468022FDF714FC304678215A4653
:102B200081230094FEF7B8FCB5F5607F0AF1010A35
:102B3000C4D141B0BDE8F08F70470000FEF7D0BDB2
:102B400070470000FEE700009CB0FEF7D7FD0DAC1B
:102B5000201D2421FDF742FC02200D900120119040
:102B600010201290002520461495FEF74FFF28B143
:102B7000EFF3108072B600BFFEE700BF0F20CDE973
:102B8000000568460021CDE902550495FEF74CFE8C
:102B900020B1EFF3108072B6FEE700BF002741F2CC
:102BA0001800CDE90F77CDE90D77C4F20200016876
:102BB00041F2000441F0080101600168C4F201041F
:102BC00001F00801009100990168A4F5806541F0C9
:102BD000100101600068012100F0100000900098D1
:102BE000284600220126FEF78FFA0DF134084FF037
:102BF000020928464146CDE90D660F97CDF8409071
:102C0000FEF774F920464FF4005101224FF40055AD
:102C1000FEF77AFA0DA880E8E00220464146FEF76A
:102C200065F940F28040A4F53C41C2F2000041F653
:102C300080224FF48043C0F2060280E88600C0E99B
:102C40000373C0E90577C0E90777FEF769FA28B191
:102C5000EFF3108072B600BFFEE700BF40F2D44031
:102C6000C2F200004FF080414FF6FF731097CDE99C
:102C70000E77CDE90077072280E88600C0E90337A8
:102C80008761FFF719F928B1EFF3108072B600BF22
:102C9000FEE700BF4FF480500D9040F2D440C2F2E6
:102CA00000000DA9FFF7D0F920B1EFF3108072B644
:102CB000FEE700BF40F2D440C2F200006946FFF7D1
:102CC000BBF828B1EFF3108072B600BFFEE700BF7B
:102CD000FFF7B6FC20464FF400510122FEF714FA2C
:102CE00040F2080B1AAD1BAE0DF13409C2F2000B15
:102CF000E84603E04FF47A70FEF7E4F828463146E0
:102D0000FDF76CFF0028F5D10020FFF783FC0020C1
:102D10000021FFF78DFCDDF86CA0504600F06EFC42
:102D200002460B4648462EA1FDF770FA4846594622
:102D30000122FFF795FE00201421FFF779FC1A9875
:102D400000F05CFC02460B46404628A1FDF75EFA07
:102D5000404659460122FFF783FEFFF79DFE002102
:102D60005046C4F2E01100F0E5FC074620464FF45F
:102D700000510022FEF7C8F9002FBBD1C820FEF792
:102D8000A1F820464FF400510122FEF7BDF9C820FA
:102D9000FEF798F820464FF400510022FEF7B4F9F0
:102DA000C820FEF78FF820464FF400510122FEF7AD
:102DB000ABF9C820FEF786F820464FF400510022F8
:102DC000FEF7A2F9C820FEF77DF820464FF4005127
:102DD0000122FEF799F9C820FEF774F88AE700BFD0
:102DE00054656D703A20252E3266000048756D6975
:102DF000646974793A20252E326600005FEA400C3F
:102E000008BF91F0000F4FEA8C234FEAC12243EA3A
:102E100051514FEA1C5018BF00F5F0404FEA300006
:102E200018BF41F000415FEA6C5C00F02980BCF102
:102E3000FF3F08BF40F080407047130C06BF1204EC
:102E40004FF0100C4FF0000C130E04BF12020CF1E7
:102E5000080C130F04BF12010CF1040C930F04BFF4
:102E600092000CF1020CD30F04BF52000CF1010CC4
:102E700011464FF00002A0F11F00A0EB0C007047BC
:102E800011F0004F08BF704731F000413FF4D5AF5B
:102E90000B0C06BF09044FF0100C4FF0000C0B0E8A
:102EA00004BF09020CF1080C0B0F04BF09010CF15F
:102EB000040C8B0F04BF89000CF1020CCB0F04BF74
:102EC00049000CF1010CCCF1200322FA03F341EA92
:102ED000030102FA0CF2A0EB0C0000F101007047B4
:102EE00023F07F4720F07F4C80EA030000F0004091
:102EF000ACEB070303F57C5303F1FF032DE9804995
:102F000009B44FEA144324EA03484FEA154B25EA73
:102F10000B4E0FF2042606EB13273E7803FB0667E1
:102F2000C7F5000707FB06F64FEAD64606F102068C
:102F30004FEA543707FB066CCCF1005C4FEA1C47A4
:102F40002CEA074C0CFB06F507FB06F404EB1546D0
:102F50004FEA961649085FEA320234BF00204FF06C
:102F600000404FEAD13706FB07FC4FEA1C4C0CFB34
:102F70000BF7D21B03FB0CF761EB07010CFB0EF701
:102F8000B0EB074072EB17420CFB08F734BFA2EB23
:102F90000742B2EB074261EB17414FEA0C444FEA9C
:102FA000910706FB07FC4FEA1C4C0CFB0BF7B0EB40
:102FB000C74072EB573203FB0CF734BFA2EBC7429A
:102FC000B2EBC74261EB57310CFB0EF7B0EBC70019
:102FD00072EB57720CFB08F734BFA2EBC702B2EBDF
:102FE000C70261EB57714FEA816141EA92114FEAE2
:102FF000826242EA90124FEA806004EBCC04039FA5
:103000004FEAD13706FB07FC4FEA1C4C0CFB0BF7D1
:10301000D21B03FB0CF761EB07010CFB0EF7B0EBC7
:10302000074072EB17420CFB08F734BFA2EB0742D4
:10303000B2EB074261EB17414FEA8C5504EB9C243D
:103040004FEA910706FB07FC4FEA1C4C0CFB0BF701
:10305000B0EBC74072EB573203FB0CF734BFA2EB67
:10306000C742B2EBC74261EB57310CFB0EF7B0EB36
:10307000C70072EB57720CFB08F734BFA2EBC70214
:10308000B2EBC70261EB57714FEA816141EA9211DD
:103090004FEA826242EA90124FEA806015EB4C25BB
:1030A00044F100044FEAD13706FB07FC4FEA1C4C01
:1030B0000CFB0BF7D21B03FB0CF761EB07010CFBBE
:1030C0000EF7B0EB074072EB17420CFB08F734BF6A
:1030D000A2EB0742B2EB074261EB17414FEA8131A5
:1030E00041EA92414FEA823242EA90424FEA80300E
:1030F0004FEA0C7615EB1C1544F1000448EA034333
:103100004EEA0B484FF0000EB2EB080C71EB0307D0
:1031100024BF624639464EEB0E0E4FF0000B0018EE
:10312000524149414BEB0B0BB2EB080C71EB03071F
:103130007BF1000B24BF624639464EEB0E0E4FF07A
:10314000000B0018524149414BEB0B0BB2EB080C42
:1031500071EB03077BF1000B24BF624639464EEB4F
:103160000E0E51EA020718BF46F0010616EB0E7666
:1031700055F1000254F1000103D5BDE88901BDE815
:103180000088BDE88901BDE80048B619524141EB0D
:103190000101A3F10103704780807F7E7D7C7B7AF3
:1031A0007978777676757473727171706F6E6E6DF3
:1031B0006C6C6B6A6A696868676666656464636399
:1031C00062616160605F5F5E5E5D5D5C5C5B5B5A1F
:1031D0005A5959585857575656555555545453538C
:1031E00052525251515050504F4F4F4E4E4D4D4DE7
:1031F0004C4C4C4B4B4B4A4A4A4949494848484732
:10320000474747464646454545444444444343436F
:1032100043424242424141419C46002B30D4770018
:103220002BD04FEA37071CB503B44FF010004FF016
:103230001001BAF1000F06D0BCF1000FDCBF40F066
:10324000080040F008014FF000000FBCBDE810403E
:103250000BF1010BBBF1010F08BF5FEA170722BF9B
:1032600012F1010211F101014FF0004143F100039D
:1032700000F0004043EA00007047F9D35708D0E758
:1032800046EA06464FEA164613F1400F1FDD13F1DA
:10329000200FDFBF16430A46002120335B42BED019
:1032A000C3F1200746EA06464FEA164602FA07F738
:1032B00046EA070622FA03F2C3F1200701FA07F7EC
:1032C00042EA070221FA03F14FF00003A7E746EABA
:1032D000020646EA06464FEA164646EA0106BCBF23
:1032E00046EA0646360C4FF000034FF000024FF05E
:1032F000000194E72DE9804C70B49A46934691E81A
:10330000380007C831EA400C48BF34EA430C03D503
:10331000FFF7E6FDFFF780FFF0BCBDE8008C2DE96C
:10332000804C70B49A46934691E8380007C810F074
:10333000804F08BF13F0804F03D100F005F8FFF76E
:103340006BFFF0BCBDE8008C20F07F4723F07F4C82
:1033500080EA030000F0004007EB0C03A3F57C5368
:10336000A3F1FE0392F0000F00F0B38095F0000F80
:1033700000F077802DE901494FEA114021EA004829
:103380004FEA144624EA064700FB06FC08FB06F653
:1033900007FB08F818EB06484CEB164C00FB07F748
:1033A00018EB07484CEB17404FEA124B22EA0B4E42
:1033B0004FEA154625EA06470BFB06FC0EFB06F610
:1033C00007FB0EFE1EEB064E4CEB164C0BFB07F7F5
:1033D0001EEB074E4CEB174B18EB0B0840F10000AF
:1033E00018EB0E0B58EB000840F100008F1A4FF05D
:1033F00000014FF000063CBFC943661B14BFB5EB8C
:10340000040C00213CBFC943F61B4FEA174427EACE
:1034100004454FEA1C472CEA074C04FB076205FBF6
:1034200007F70CFB05F616EB074642EB174204FBC9
:103430000CFC16EB0C4642EB1C421BEB060658EB51
:10344000020241414EEA8E0E46EA9E0601D5BDE8D3
:103450000189B619524141EB0101A3F10103BDE815
:1034600001894FEA144524EA05464FEA114721EA4B
:10347000074C05FB07F406FB07F70CFB06F111EB05
:10348000074144EB174405FB0CFC11EB0C4144EBEA
:103490001C444FEA124722EA074C05FB07F206FBE1
:1034A00007F70CFB06F616EB074642EB174205FB47
:1034B0000CFC16EB0C4642EB1C456A1854F100015B
:1034C00048BF7047B619524141EB0101A3F1010316
:1034D000704795F0000F37D04FEA114221EA0246BB
:1034E0004FEA144724EA074C02FB07F106FB07F7F3
:1034F0000CFB06F414EB074441EB174102FB0CFCF8
:1035000014EB0C4441EB1C414FEA154725EA074CEC
:1035100002FB07F506FB07F70CFB06F616EB074662
:1035200045EB174502FB0CFC16EB0C4645EB1C4229
:10353000121951F1000148BF7047B619524141EBD1
:103540000101A3F1010370474FEA144524EA05463F
:103550004FEA114721EA074C05FB07F106FB07F785
:103560000CFB06F212EB074241EB174105FB0CFC8A
:1035700012EB0C4251EB1C414FF0000648BF704764
:10358000921841EB0101A3F101037047490050EA91
:10359000C12018BF04204A0D18BF40F0010040F2BE
:1035A000FF72B2EB515F08BF40F00200012808BF74
:1035B0000520704730380A2801D2012070470020CA
:1035C0007047000010B500290AD00878002807D0FD
:1035D00005487844FDF7B8FA002801D0002010BD56
:1035E0000248784410BD00006A0E0000620E000020
:1035F0000808A0F500114FEA3101704743004FEA77
:10360000D30C4FEA3C0C43401FBF40070CF1605104
:1036100013F0FE4F70471CF0006F03D10CF0004117
:10362000002070470CF0004343EA507040EACC00A1
:1036300010B500F019FA00BF000000924FEA000137
:10364000FFF7D6BF4FF00041A1F500214FF0000079
:103650007047000090EA010F48BF81F0004100F17F
:103660005682421A3CBF801A89184FEAD052A2EB08
:10367000D1534FF07F4C1CEA410F18BF9CEA026FF8
:1036800000F03B804FF0004C4CEA00204CEA012156
:1036900021FA03FC10EB0C0C1ED202F1FF325FEAA0
:1036A0001C2040EBC25038BF70471CF07F0F4FEA20
:1036B000400C18BFBCF17F4F38BF7047C3F12003E7
:1036C000994008BF20F00100BCF17F4F38BF704720
:1036D000A0F1C04000F00EBA4FEA3C00000A40EBF7
:1036E000C25028BF1CF0FF0F4FEA400CE6D018BFB5
:1036F000BCF17F4F38BF7047EAE79CEA026F05D004
:1037000010EA5C0F08BF00F00040704710B500F0F1
:10371000ABF900BF64FBBE3E10B500F0F5F80CBF7E
:103720000120002010BD10B500F0EEF814BF0120FC
:10373000002010BD10B500F02FF98CBF0120002033
:1037400010BD10B500F028F92CBF0120002010BDDD
:1037500010B500F055F994BF0120002010BD10B540
:1037600000F04EF934BF0120002010BD401058BFBA
:10377000C0F14040491058BFC1F140418142EFF3D0
:10378000008070474FF47F0C1CEAD0121EBF1CEA69
:10379000D11392EA0C0F93EA0C0F00F0858090EAA7
:1037A000010F48BF42F4807240F4000C41F4000065
:1037B0002CF07F4120F07F4000B5A2EB0302814254
:1037C0000FF2081CACEB504E9EF800E0C0F1000078
:1037D0004FEA4E0E00FB0EFC38BF49004FEA2C1C8E
:1037E0000CFB0EF34FEACE1E0EEB635E4FEA112C7C
:1037F0000EFB0CFC4FEAC1214FEA1C5300FB0311E6
:1038000002F5FA024FEA112C0EFB0CFC4FEA0131D3
:103810004FEADC4C00FB0C1142EB2242C14228BFB4
:1038200009184CEB03335DF804EB10EB410143EB5B
:10383000C250B2F57C0F38BF704729D512F0F00F97
:103840001CBF00F1C04000F000407047008182833F
:103850008485868788898B8C8D8E8F91929395969F
:1038600097999A9C9D9FA0A2A3A5A7A8AAACAEB029
:10387000B2B3B5B7B9BCBEC0C2C5C7C9CCCED1D42E
:10388000D7D9DCDFE2E6E9ECF0F3F7FAFE0000005E
:103890004FEA400C0CF1807CBCF17E4F28BF704792
:1038A000B0F1C04000F026B90CEAD11390EA010F44
:1038B00048BF42F48072624538BF634507D213F4B3
:1038C0007F0F16D080EA010000F00040704710B56D
:1038D00000F0CAF8097EFC3E00F005B880EA01005D
:1038E00000F00040704780EA010000F0004000F066
:1038F00001B912F47F0F04BF0248704780EA01004B
:1039000000F0F8B80000C07F50EA010C00F113800D
:103910001CF5000F58BFBCF5000F01D4884270475A
:1039200007D710F5000F58BF11F5000F15D48842C6
:103930007047894270471CF5000F04D5BCF5000F95
:10394000F7D5814270474FF0807C1CEB400F38BFA9
:103950001CEB410F01D28142704710B500F084F892
:10396000922449004FF000504FF08051FFF7FEBE07
:10397000B0FA80F310FA03F2C3F19D030AD0D9051F
:1039800001EB1220530638BF704700F1010008BF59
:1039900020F001007047000050EA010C00F1138094
:1039A0001CF5000F58BFBCF5000F01D488427047CA
:1039B00007D710F5000F58BF11F5000F15D4884236
:1039C0007047894270471CF5000F04D5BCF5000F05
:1039D000F7D5814270474FF0807C1CEB400F38BF19
:1039E0001CEB410F01D28142704710B500F03CF84A
:1039F000922449004FF080504FF00051FFF7B6BEBF
:103A000050EA010C00F113801CF5000F58BFBCF503
:103A1000000F01D48842704707D710F5000F58BF38
:103A200011F5000F15D488427047894270471CF584
:103A3000000F04D5BCF5000FF7D5814270474FF059
:103A4000807C1CEB400F38BF1CEB410F01D2814240
:103A5000704710B500F008F8922449004FF000506C
:103A60004FF08051FFF782BE0EF1020E2EF0030ED2
:103A70005EF8044B244204D44FEA4102B2F17F4F76
:103A800011D84FEA4003B3F17F4F0CD80ED14FEA63
:103A9000D07C0CEB4C0C0CF1020CB2F17F4F08BF48
:103AA0004CEBD17C04E04FF0080C01E04FEAD17CF4
:103AB0000CEB4C0324FA03F404F00704B4F1040CF7
:103AC00006D20EEB840CBDE810404CF0010C6047B0
:103AD000DFE80CF0070802024FF00040A0F580007C
:103AE00010BD0846420018BFD2F1807288BF00F0B6
:103AF000004010BDFF2141EAD050C00570470000D2
:103B000090EA010F48BF81F000413FF5AAAD421A8B
:103B100004D882F00042A0EB020011444FEAD052D8
:103B2000A2EBD1534FF07F4C1CEA410F18BF9CEA27
:103B3000026F4AD04FF0004C4CEA00204CEA0121C1
:103B400021FA03FCB0EB0C0C0FD412F0FE0F36D0B0
:103B50005FEA4C001DD5001240EBC25038BF7047E1
:103B60001CF03F0F18BF70470BE05FEA1C20A2F16A
:103B7000010240EBC25038BF70471CF07F0F18BFE6
:103B80007047C3F12003994014BF401E20F001008C
:103B900070474FEA1223800808BF7047B0FA80FCD4
:103BA000A2EB0C02CCF1280C60FA0CF093EA122F75
:103BB00004BF00EBC25070474FEAC3707047130A4E
:103BC0005FEADC1008BF7047F6E79CEA026F04D09A
:103BD00010EA5C0F08BF0020704710B5FFF744FFE4
:103BE00040DFF63E81F000407047FCF7F9BC000072
:103BF00002400000000000A000000000054000009E
:103C0000000000C8000000000C4000000000409CC4
:103C100000000000194000000020BCBE00000000B1
:103C200034400000BFC91B8E00000004B5400000F6
:103C3000504BCFD06607E2CF010000006C4100007E
:103C40003E8251AADFEEA73401000000D9420000F5
:103C5000DCB5A0E23A301F97FFFFFFFFB44500003C
:103C6000FD25A0C8E9A3C14FFFFFFFFFFF3F0000F4
:103C70000000008000000000FF3F00000000008006
:103C8000000000000000000000000000010203042A
:103C900006070809000000000102030400000000FC
:103CA0000000000000000000000000000000000014
:103CB0000010001000100010001000100000001094
:103CC000000000000028002800280000000000007C
:103CD000000000000000000000240024007C0024FC
:103CE0000048007C004800480000000000380054F4
:103CF0000050003800140054005400380010000038
:103D0000002000540058003000280054001400081F
:103D100000000000001000280028001000340048B7
:103D200000480034000000000010001000100000E7
:103D3000000000000000000000000000000800106B
:103D4000002000200020002000200020001000089B
:103D50000020001000080008000800080008000803
:103D600000100020001000380010002800000000A3
:103D70000000000000000000000000000010001023
:103D8000007C001000100000000000000000000097
:103D900000000000000000000000001000100010F3
:103DA00000000000000000000000003800000000DB
:103DB0000000000000000000000000000000000003
:103DC00000000010000000000008000800100010B3
:103DD0000010001000200020000000000038004407
:103DE0000044005400440044004400380000000037
:103DF00000100030005000100010001000100010E3
:103E000000000000003800440044000400080010D6
:103E10000020007C0000000000380044000400186E
:103E200000040004004400380000000000080018EE
:103E3000002800280048007C00080008000000005E
:103E4000007C00400040007800040004004400387A
:103E500000000000003800440040007800440044A6
:103E60000044003800000000007C0004000800103E
:103E70000010002000200020000000000038004456
:103E800000440038004400440044003800000000B2
:103E90000038004400440044003C00040044003862
:103EA0000000000000000000001000000000000002
:103EB00000000010000000000000000000000010E2
:103EC00000000000000000100010001000000000C2
:103ED000000C003000400030000C0000000000002A
:103EE000000000000000007C0000007C00000000DA
:103EF000000000000000000000600018000400182E
:103F000000600000000000000038004400040008C9
:103F100000100010000000100000000000380044F5
:103F2000004C0054005C00400040003800000000DD
:103F300000100028002800280028007C00440044CD
:103F40000000000000780044004400780044004471
:103F500000440078000000000038004400400040A9
:103F6000004000400044003800000000007000489D
:103F70000044004400440044004800700000000079
:103F8000007C00400040007C004000400040007C7D
:103F900000000000007C004000400078004000402D
:103FA0000040004000000000003800440040004095
:103FB000005C00440044003800000000004400445D
:103FC0000044007C00440044004400440000000021
:103FD0000038001000100010001000100010003811
:103FE00000000000000400040004000400040004B9
:103FF0000044003800000000004400480050006009
:10400000005000480048004400000000004000400C
:1040100000400040004000400040007C00000000E4
:104020000044006C006C0054004400440044004410
:104030000000000000440064006400540054004C80
:10404000004C0044000000000038004400440044DC
:1040500000440044004400380000000000780044A0
:104060000044004400780040004000400000000090
:104070000038004400440044004400440054003828
:104080000004000000780044004400440078004828
:1040900000480044000000000038004400400030A8
:1040A000000800040044003800000000007C0010FC
:1040B00000100010001000100010001000000000A0
:1040C00000440044004400440044004400440038DC
:1040D000000000000044004400440028002800289C
:1040E0000010001000000000004400440054005480
:1040F0000054006C00280028000000000044002844
:1041000000280010001000280028004400000000D3
:104110000044004400280028001000100010001087
:1041200000000000007C00040008001000100020C7
:104130000040007C0000000000180010001000107B
:1041400000100010001000100010001800200020C7
:10415000001000100010001000080008000000000F
:1041600000300010001000100010001000100010AF
:10417000001000300010002800280044000000005B
:10418000000000000000000000000000000000002F
:104190000000000000000000000000FE00200010F1
:1041A000000000000000000000000000000000000F
:1041B0000000000000380044003C0044004C003483
:1041C000000000000040004000580064004400442B
:1041D00000640058000000000000000000380044A7
:1041E00000400040004400380000000000040004CB
:1041F0000034004C00440044004C00340000000037
:104200000000000000380044007C004000440038FA
:1042100000000000000C0010007C001000100010D6
:104220000010001000000000000000000034004CEE
:1042300000440044004C003400040078004000407A
:1042400000580064004400440044004400000000A2
:10425000001000000070001000100010001000108E
:10426000000000000010000000700010001000109E
:1042700000100010001000E0004000400048005016
:104280000060005000480044000000000070001072
:1042900000100010001000100010001000000000BE
:1042A00000000000007800540054005400540054F2
:1042B00000000000000000000058006400440044BA
:1042C00000440044000000000000000000380044EA
:1042D00000440044004400380000000000000000DA
:1042E000005800640044004400640058004000404E
:1042F000000000000034004C00440044004C003436
:104300000004000400000000005800640040004069
:1043100000400040000000000000000000380044A1
:104320000030000800440038000000000020002099
:10433000007800200020002000200018000000006D
:10434000000000000044004400440044004C0034DD
:104350000000000000000000004400440028002885
:10436000002800100000000000000000005400546D
:104370000054006C0028002800000000000000002D
:104380000044002800100010002800440000000035
:104390000000000000440044002800280010001025
:1043A0000010006000000000007C000800100020E9
:1043B0000040007C000000000018001000100010F9
:1043C0000020002000100010001000180010001045
:1043D000001000100010001000100010001000105D
:1043E000003000100010001000080008001000103D
:1043F000001000300000000000000074004C0000BD
:10440000000000000000000001020203040506078E
:1044100008090A0B0C0D0E0F10100000584400087C
:10442000000000201800000050010008704400083F
:1044300018000020080B0000700100081C0000009C
:1044400043000000F8FFFFFF0C0000000E0000001A
:104450000F0000002E00000001000000100000000E
:10446000070A00009C3C000800127A0000000000CF
:04000005080000ED02
:00000001FF
