:020000040800F2
:10000000D80A0020B50100080D170008E912000801
:1000100009170008AD030008191C000800000000C3
:100020000000000000000000000000000D1C00089F
:10003000B10300080000000011170008111C00089F
:10004000CF010008CF010008CF010008CF01000850
:10005000CF010008CF010008CF010008CF01000840
:10006000CF010008CF010008CF010008CF01000830
:10007000CF010008CF010008CF010008CF01000820
:10008000CF010008CF010008CF010008CF01000810
:10009000CF010008CF010008CF010008CF01000800
:1000A000CF010008CF010008CF010008CF010008F0
:1000B000CF010008CF010008CF010008CF010008E0
:1000C000CF010008CF010008CF010008CF010008D0
:1000D000CF010008CF010008CF010008CF010008C0
:1000E000CF010008CF010008CF01000800F002F89E
:1000F00000F050F814A696E8000CB244B344DA4578
:1001000001D100F047F8BAE80F000FA696E83000DA
:10011000A5EB040504EB0607AAEB0704A7F101070A
:100120004FEA15154FEA3414A4F10104AC4201D38F
:1001300000F030F813F0010F18BFFB1A43F0010371
:1001400000F001F8DBE718474423000064230000B7
:10015000103A24BF78C878C1FAD8520724BF30C8F3
:1001600030C144BF04680C60704700007047000055
:100170000023002400250026103A28BF78C1FBD8B0
:10018000520728BF30C148BF0B6070471FB51FBD65
:1001900010B510BD00F0CFF81146FFF7F7FF01F0E2
:1001A0003DFD00F0EDF803B4FFF7F2FF03BC00F0F3
:1001B000F5F800000948804709480047FEE7FEE7D8
:1001C000FEE7FEE7FEE7FEE7FEE7FEE7FEE7FEE707
:1001D00004480549054A064B70470000151C0008F5
:1001E000ED000008D8040020D80A0020D80600201E
:1001F000D8060020032A40F2308010F0030C00F0F3
:10020000158011F8013BBCF1020F624498BF11F850
:1002100001CB00F8013B38BF11F8013BA2F1040209
:1002200098BF00F801CB38BF00F8013B11F0030381
:1002300000F04F80083AC0F0088051F8043B083ABB
:1002400051F804CBA0E80810F5E7121D5CBF51F887
:10025000043B40F8043BAFF30080D20724BF11F801
:10026000013B11F801CB48BF11F8012B24BF00F866
:10027000013B00F801CB48BF00F8012B70474FF05D
:10028000000200B5134694469646203922BFA0E8E6
:100290000C50A0E80C50B1F12001BFF4F7AF0907F2
:1002A00028BFA0E80C5048BF0CC05DF804EB8900E3
:1002B00028BF40F8042B08BF704748BF20F8022B26
:1002C00011F0804F18BF00F8012B7047704770473E
:1002D000704710B5203AC0F00B80B1E81850A0E884
:1002E0001850B1E81850A0E81850203ABFF4F5AF04
:1002F0005FEA027C24BFB1E81850A0E8185044BF60
:1003000018C918C0BDE810405FEA827C24BF51F8CC
:10031000043B40F8043B08BF7047D20728BF31F8C0
:10032000023B48BF11F8012B28BF20F8023B48BF11
:1003300000F8012B7047754600F02CF8AE4605001A
:100340006946534620F00700854618B020B5FFF7F0
:100350003FFFBDE820404FF000064FF000074FF090
:1003600000084FF0000BAC46ACE8C009ACE8C0098F
:10037000ACE8C009ACE8C00921F007018D46704720
:1003800010B50446AFF300802046BDE81040FFF7EB
:100390000ABF0000004870471800002001491820DB
:1003A000ABBEFEE72600020070470000FEE700003B
:1003B000704700002DE9F04F82B00E68002E00F06B
:1003C000FD8041F20042C4F20102042340F2004EDB
:1003D000904208BF03234FF6FF7CC4F2010E009346
:1003E00000240123C1F2100C4FF0000A4FF0000965
:1003F0004BE000BF41F20002C4F20102009F9042B4
:1004000008BF022704F00C030F229A402BEA0202D5
:1004100007FA03F34FEA9A051A4346F825204E6877
:1004200040F20C45F202DEF8082054BF22EA08022E
:1004300042EA0802C4F20105CEF808202A68B30295
:1004400054BF22EA080242EA08022A60B303DEF837
:10045000042054BF22EA080242EA0802F303CEF85D
:100460000420DEF800204FF0010354BF22EA080206
:1004700042EA0802CEF800200E680AF1010A36FAB4
:100480000AF204F1040400F0998003FA0AFB16EA68
:100490000B08F1D04E68664512DC122E56D8DFE804
:1004A00006F0350B4D49555555555555555555552E
:1004B00055555545510000BFD1F80C9046E000BF9E
:1004C0004FF6FF72C1F2210296420FDC0022C1F208
:1004D000110296421AD00022C1F21202964215D0A1
:1004E0000022C1F22102964210D02FE00022C1F278
:1004F000220296420AD00022C1F23102964205D071
:100500000022C1F23202964220D100BF8A684AB16D
:10051000012A14BFC0F814B0C0F810B04FF0080999
:1005200014E000BF4FF0040910E000BFCA6802F1F8
:1005300004090BE04FF0000908E000BFCA6802F1AF
:10054000080903E0CA6802F10C0900BF024626460A
:10055000B8F5807F24BF0432203E17680F25B540D0
:1005600027EA050509FA06F635431560CA79D20669
:100570007FF582AF41F21803C4F202031A68AEF5A8
:100580007E7642F001021A601A6802F001020192BE
:10059000019A2AF0030256F802B040F60002C4F2B3
:1005A0000102904208D040F60042C4F2010290429B
:1005B0007FF420AF012725E7002723E702B0BDE83D
:1005C000F08F000040F2D440C2F200000068704793
:1005D000002804BF01207047F0B581B0044690F8B0
:1005E0003D0028B9002084F83C00204600F09AFA2B
:1005F000242084F83D002068016821F00101016099
:10060000016841F400410160016821F4004101608A
:1006100000F040FC636848F2A16CC0F2010C40F6A7
:100620000011C0F23D0163453CBF48F28041C0F279
:100630001E01884202D2012001B0F0BD4DF6836157
:10064000C4F21B31A0FB01122168970CD1F804E021
:100650004FF496762EF03F0545EA92454D6077437C
:1006600048F638160D6AC0F24106A7FB067625F05B
:100670003F07634538BF960C721C3A430A62CA6949
:1006800048F2A0664CF6FF77C0F20106B34222EAB8
:1006900007020BD801385B00B0FBF3F001306FF3B9
:1006A0001F30042898BF04201BE000BFA768013852
:1006B00057B119277B43B0FBF3F001306FF31F30C4
:1006C00070B100F5804007E003EB4303B0FBF3F0AB
:1006D00001306FF31F3018B100F5004001E000BF9A
:1006E00001201043C8610868D4E9072320F0C00046
:1006F000104318430860886848F2FF3204F10C0781
:1007000090438CCF18431043A6698860C86820F0D6
:10071000FF0038433043C860086840F001000860BB
:1007200000202021206484F83D10206384F83E00DE
:1007300001B0F0BD2DE9F04F83B01E4692468846C9
:100740000446FFF73FFF94F83D10202924D121688B
:10075000054600BF886980071AD5FFF733FF401BA5
:1007600021681A28F6D388698007F3D50020202154
:10077000206384F83D1084F83E00216C41F0200194
:10078000216484F83C00022003B0BDE8F08F00BF74
:1007900094F83C00012803D1022003B0BDE8F08F9B
:1007A0004FF0010984F83C900868C00703D108683D
:1007B00040F0010008600868002720F4006008602D
:1007C000242084F83D000020CFF6FF702764E0620B
:1007D00008F0FE08BAF1010F88BFD1464FF0A00A19
:1007E0004FF0200B04E000BF01374F4500F0A2801E
:1007F0000868002240F48070086020464FF0011124
:100800003346009500F0D0FD2168002856D1C1F88C
:100810001080FFF7D7FE21684B694A6994F83D5074
:10082000A02D054605D013F0020008BF12F4806029
:100830001AD084F83DB048690A68800742F4007213
:100840000A6045D46FF48060486100BF8869800702
:10085000CAD5FFF7B7FE401B21681A28F6D388696E
:100860008007F3D54AE000BFB6B100BFFFF7AAFE8C
:10087000401BB04288BF84F83DA021684A6948699E
:1008800094F83D30A02BD4D012F0020208BF10F42F
:100890008060EBD0CDE700BFFFF794FE84F83DA069
:1008A00021684A69486994F83D30A02BC1D012F004
:1008B0000202BED110F48060EED0BAE70868C0052D
:1008C00044BF4FF400702064032003B0BDE8F08FF4
:1008D0000020029048690290886902900298886915
:1008E00001E000BF806980071AD5FFF76BFE411B4E
:1008F00020681A29F6D381698907F3D500202021C1
:10090000206384F83D1084F83E00216C41F0200102
:10091000216484F83C00012003B0BDE8F08F00BFE3
:10092000202084F83D00002084F83C0003B0BDE89E
:10093000F08F00BF202084F83D00002084F83C00A8
:10094000012003B0BDE8F08F2DE9F04383B01E46CF
:10095000174689460446FFF735FE94F83D102029D6
:1009600024D10546206800BF816989071AD5FFF7A1
:1009700029FE411B20681A29F6D381698907F3D51E
:1009800000202021206384F83D1084F83E00216C73
:1009900041F02001216484F83C00022003B0BDE84E
:1009A000F08300BF94F83C10012903D1022003B06A
:1009B000BDE8F083012184F83C100168C90703D128
:1009C000016841F001010160016840F2020821F470
:1009D00000610160212184F83D10102184F83E104F
:1009E0000021216467626685618DC0F2010821855E
:1009F000A8F10211E162E16A0A9E11F5803F18BF79
:100A000001291DD1016841F48071016020464FF039
:100A1000011100223346009500F0C6FC50B1206859
:100A20000068C00544BF4FF400702064012003B08B
:100A3000BDE8F0832069B0F5804F07D1FE2015E0B6
:100A40000829DFD0216B1229DCD0DFE7062000EA7D
:100A5000D9102168F030086108F1060120463246BD
:100A60002B4600F087FD0028E0D1FF20216800EA36
:100A7000090008612046414632462B4600F07AFDC7
:100A80000028D3D10020029020684169029180693A
:100A90000290029806E000BF204631462A4600F048
:100AA00025FC18BB208D68B3204631462A4600F04D
:100AB000CDFDD8B9606A2168024612F8013B0B618E
:100AC0006262628D013A6285228D531E23854F69D1
:100AD0007F07E1D51B04DFD0437802300B616062F1
:100AE000608D01386085901E2085D5E7206C042834
:100AF0009CD12068016841F400710160012003B0BD
:100B0000BDE8F0832068016841F400710160202095
:100B100084F83D00002084F83E0084F83C0003B0D7
:100B2000BDE8F08310B586B0016845F20040C4F21C
:100B3000000081424FF00001CDE90411CDE902111E
:100B400002D006B010BD00BF41F21804C4F2020486
:100B5000216800F5384041F008012160216801F06A
:100B6000080101910199C0210291122103910321F1
:100B7000059102A9FFF71EFC606840F40010606058
:100B8000606800F400100190019806B010BD0000EC
:100B900040F2000040F2D441C2F20000C2F2000173
:100BA00000780A68104408607047000080B542F27F
:100BB0000000C4F20200016841F01001016003204E
:100BC00000F07AF80F2000F005F800F027F8002078
:100BD00080BD000070B540F20006C2F2000640F28F
:100BE00010013278C2F200014FF47A730968B3FB46
:100BF000F2F20446B1FBF2F1084600F05FFB0F2C65
:100C00004FF0010508D838B94FF0FF3021460022D7
:100C1000002500F025F87460284670BD82B041F2CE
:100C20001800C4F202000168042241F001010160D1
:100C3000016801F0010101910199416841F0805181
:100C40004160406800F08050009000980420C4F299
:100C50000100016862F31A61016002B07047000090
:100C600010B54EF60C5CCEF2000CDCF80030C3F38D
:100C7000022E8EF00704042C28BF0424BEF10303C7
:100C80004FF0FF3E0EFA04F438BF0023A143994011
:100C90000EFA03F39A43114300F00F0200F1604390
:100CA0000901043A03F564436244002848BF02F195
:100CB0000C03197010BD00004EF60C51CEF200016D
:100CC0000A684FF6FF031A4060F30A2242F0806080
:100CD00040F0FD7008607047002804BF0120704795
:100CE0002DE9F04381B042F20008C4F20208044644
:100CF000D8F800000D4600F0070081420CD9D8F862
:100D0000000020F007002843C8F80000D8F80000D1
:100D100000F00700A8426CD1206841F20409810765
:100D2000C4F2020917D5410705D5D9F8001041F4DE
:100D3000E061C9F80010010705D5D9F8001041F4A9
:100D40006051C9F80010D9F80010A26821F0F00134
:100D50001143C9F80010C00742D1D8F8000000F0D4
:100D6000070085420CD2D8F8000020F00700284385
:100D7000C8F80000D8F8000000F00700A84238D1F9
:100D80002068410707D5D9F80010E26821F4E06136
:100D90001143C9F80010000708D5D9F800002169EF
:100DA00020F4605040EAC100C9F80000D9F80020E2
:100DB00002F00C00082841F20020C0F27A004DD168
:100DC00042F27A43C2F38341C0F60003595CD20376
:100DD00038D440F60010C0F23D0048433EE000BF6A
:100DE000606859F8041C022808D0012826D189031C
:100DF00006D4012001B0BDE8F08300BF8901F8D519
:100E0000D9F8001021F003010843C9F80000FFF7EA
:100E1000D9FB064641F28837D9F80000616800F036
:100E20000C00B0EB810F98D0FFF7CCFB801BB842D1
:100E3000F2D9032001B0BDE8F08300BF8907D8D5FF
:100E4000DEE700BFD9F8002042F27843C2F3404207
:100E5000C0F600039A5C4843B0FBF2F0D9F80010EA
:100E600041F6F442C1F30311C0F60002515C40F2B6
:100E7000100220FA01F140F20400C2F20000006802
:100E8000C2F200021160FFF7A5FE002001B0BDE82C
:100E9000F083000040F2100041F20401C2F20000B1
:100EA000C4F202010068096841F60452C1F302214C
:100EB000C0F60002515CC84070470000002804BF23
:100EC000012070472DE9F04182B00446007841F2DC
:100ED0000006C007C4F202060CD0706800F00C00D7
:100EE000042840F081803068800303D560680028C2
:100EF00000F04681207880071BD5706810F00C0F39
:100F000009D0706800F00C00082840F087807068F5
:100F1000C00300F183803068800703D52069012871
:100F200040F02E813068616920F0F80040EAC1008D
:100F300030602078000713D4207840072CD4E5696E
:100F4000002D00F01881706800F00C00082840F0B7
:100F5000A780012D40F00481012002B0BDE8F0819E
:100F6000A069002800F084800020C4F24220012102
:100F7000C0F88014FFF726FB054600BF706A8007A3
:100F800000F1B280FFF71EFB401B0228F6D90320B8
:100F900002B0BDE8F08100BFF0695FEAC00808D484
:100FA000F06940F08050F061F06900F080500090EE
:100FB000009847F20007C4F200073868C00549D41A
:100FC000386840F480703860FFF7FCFA054600BFCF
:100FD0003868C0053ED4FFF7F5FA401B6428F7D9FE
:100FE000032002B0BDE8F081706800F00C00082812
:100FF00003D17068C0033FF576AF6168306800299F
:1010000000F00C81B1F5A02F00F00081B1F5803F18
:1010100040F01A8140F480301CE100BF20690028B4
:1010200040F20000C4F2422000F0888001210160FB
:10103000FFF7C8FA054600BF306880073FF572AF7A
:10104000FFF7C0FA401B0228F6D9032002B0BDE822
:10105000F08100BFE168306A002900F09D80052919
:1010600000F09280012940F0AF8040F00100B1E033
:101070000020C4F242200021C0F88014FFF7A2FA39
:10108000054600BF706A80077FF556AFFFF79AFAF2
:10109000401B0228F6D9032002B0BDE8F08100BF52
:1010A0000027C4F2422700203866FFF78BFA022D92
:1010B00005460DD13068800140F1DE80FFF782FAED
:1010C000401B02284FF00300F4D902B0BDE8F081C4
:1010D000306880014FD5FFF775FA401B02284FF0AA
:1010E0000300F5D9F1E700BF40F21000C2F20000A2
:1010F000006844F6D351C1F26201A0FB0101480A25
:10110000019000BF00BF0198411E002801913FF4EB
:1011100013AF00BF0198411E002801913FF40CAFAE
:1011200000BF0198411E002801913FF405AF00BFA8
:101130000198411E00280191E4D1FDE600210160E3
:10114000FFF740FA054600BF306880077FF5F1AE33
:10115000FFF738FA401B02284FF00300F4D9B4E738
:101160007068216A00F480328A4209D1616A00F411
:101170007010884204D1002002B0BDE8F08100BFA9
:10118000012002B0BDE8F08140F004003062306A16
:1011900040F001001EE000BF20F001003062306A24
:1011A00020F004003062FFF70DFA054641F288375F
:1011B000306A800720D5FFF705FA401BB8424FF090
:1011C0000300F5D981E700BF20F001003062306AEA
:1011D00020F004003062FFF7F5F9054641F2883748
:1011E000306A800708D4FFF7EDF9401BB842F7D901
:1011F000032002B0BDE8F081B8F1000F3FF59FAECB
:10120000F06920F08050F06199E600BF40F4802042
:101210003060306840F480301CE000BF20F4803043
:101220003060306820F480203060FFF7CBF905464D
:10123000306880037FF55EAEFFF7C4F9401B642879
:101240004FF00300F4D940E720F48030306030687C
:1012500020F480203060FFF7B5F905463068800340
:101260003FF548AEFFF7AEF9401B6428F6D90320DE
:1012700002B0BDE8F08100BF206AB0F5803F05D123
:101280007168A26821F40031114371607168626A6B
:1012900021F4741111430843706001203866FFF790
:1012A00091F90446306880013FF565AFFFF78AF990
:1012B000001B02284FF00300F4D906E7411E00206E
:1012C000B0EB116F1CBF012070474EF21002CEF23E
:1012D000000251604EF62351CEF20001F0230B7054
:1012E0000721906011607047FEE7000070B5036849
:1012F000044653F8140F400711D40E46481C29D059
:1013000086BB00BF1868400527D4FFF75BF9236848
:1013100053F8140F400737D518684007F2D500205E
:1013200070BD00BF18684007F9D41868400514D490
:1013300018684007F3D4186840050ED418684007B1
:10134000EDD41868400508D4186840074FF0000035
:1013500048BF70BD18684005E4D56FF48060186020
:10136000042012E0154603E053F8140F4007D6D4CA
:1013700018684005F1D4FFF725F9401B2368B042F7
:10138000F2D958694007EFD42020002120222163A0
:1013900084F83D2084F83E10226C10432064012024
:1013A00084F83C1070BD00002DE9F041054600684E
:1013B0001E46144601F47F0201338FB242D0DDF89D
:1013C0001880B2F5803F40F0878040693840C01BEC
:1013D000B0FA80F04009844240F0C8804EB924E061
:1013E00040693840C01BB0FA80F04009844240F0A8
:1013F000BD80FFF7E7F8A0EB08012868B142EFD9FC
:1014000041693940C91BB1FA81F149098C42E7D1E0
:101410009BE000BF40693840C01BB0FA80F0400933
:1014200084424FF0000040F0A280FFF7CBF828681C
:1014300041693940C91BB1FA81F149098C42E9D1AE
:1014400083E000BFB2F5803F24D100BF416939403D
:10145000C91BB1FA81F149098C4240F0878041698A
:101460003940C91BB1FA81F149098C4240F07E80B4
:1014700041693940C91BB1FA81F149098C4275D1E2
:1014800041693940C91BB1FA81F149098C42DDD06B
:101490006CE000BF81693940C91BB1FA81F149098B
:1014A0008C4263D181693940C91BB1FA81F1490984
:1014B0008C425BD181693940C91BB1FA81F149097C
:1014C0008C4253D181693940C91BB1FA81F1490974
:1014D0008C42DFD04AE000BF80693840C01BB0FAC0
:1014E00080F04009844241D146B923E08069384008
:1014F000C01BB0FA80F04009844237D1FFF762F890
:10150000A0EB08012868B142F0D981693940C91BB4
:10151000B1FA81F149098C42E8D116E0806938407E
:10152000C01BB0FA80F0400984424FF0000018BFA1
:10153000BDE8F081FFF746F8286881693940C91B8A
:10154000B1FA81F149098C42E8D1002020212863B9
:1015500085F83D1085F83E00296C41F02001296492
:1015600085F83C000120BDE8F08100BF0020BDE807
:10157000F0810000F0B581B0044600681D46436963
:101580008FB203EA0701B94202D1002001B0F0BDD9
:101590004169164601323CD0490512D47EB300BFE2
:1015A000FFF710F8411B2068B14203D94169394067
:1015B000B9422BD141693940B942E6D04169490568
:1015C000EED5016841F4007101606FF48061416102
:1015D000042000212022216384F83D2084F83E105D
:1015E000226C1043206484F83C10012001B0F0BD4F
:1015F00041693940B942C8D041694905E1D4FEF793
:10160000E1FF206841693940B942F1D02020E0E78C
:1016100041694905D5D441693940B942B5D04169DC
:101620004905CED441693940B942AED04169490536
:10163000C7D441693940B942A7D041694905C0D4EE
:1016400041693940B942E3D19FE7000070B50368B2
:10165000044653F8140F000611D40E46481C29D036
:1016600086BB00BF1868400527D4FEF7ABFF236890
:1016700053F8140F000637D518680006F2D500207D
:1016800070BD00BF18680006F9D41868400514D46E
:1016900018680006F3D4186840050ED418680006D0
:1016A000EDD41868400508D4186800064FF0000013
:1016B00048BF70BD18684005E4D56FF480601860BD
:1016C000042012E0154603E053F8140F0006D6D4A8
:1016D00018684005F1D4FEF775FF401B2368B0423F
:1016E000F2D958690006EFD420200021202221637E
:1016F00084F83D2084F83E10226C104320640120C1
:1017000084F83C1070BD0000FEE70000FEE700001A
:10171000704700002DE9F04182B040F28040C2F2F3
:1017200000007821012244F62063FFF703F84FF010
:10173000000418B1204602B0BDE8F08140F28045B7
:101740004FF42E40C2F20005ADF806000A260DF156
:1017500006022846782102230096FFF7F5F84FF499
:1017600000580DF10602284678210223ADF80680C4
:101770000096FFF7E9F84FF480570DF1060228466E
:1017800078210223ADF806700096FFF7DDF84FF4DC
:101790003040ADF806000DF10602284678210223FC
:1017A0000096FFF7D1F84FF44840ADF806000DF170
:1017B00006022846782102230096FFF7C5F80DF1AE
:1017C0000602284678210223ADF806400096FFF76E
:1017D000BBF80DF10602284678210223ADF8067009
:1017E0000096FFF7B1F84FF48040ADF806000DF118
:1017F00006022846782102230096FFF7A5F84FF449
:101800000140ADF806000DF10602284678210223BA
:101810000096FFF799F84FF47F40ADF806000DF100
:1018200006022846782102230096FFF78DF84FF430
:101830002140ADF806000DF106022846782102236A
:101840000096FFF781F84FF42640ADF806000DF141
:1018500006022846782102230096FFF775F84FF418
:101860002840ADF806000DF1060228467821022333
:101870000096FFF769F84FF47C50ADF806000DF1C3
:1018800006022846782102230096FFF75DF84FF400
:101890002440ADF806000DF1060228467821022307
:1018A0000096FFF751F84FF45340ADF806000DF1E4
:1018B00006022846782102230096FFF745F80DF12D
:1018C0000602284678210223ADF806400096FFF76D
:1018D0003BF84FF45540ADF806000DF106022846DE
:1018E000782102230096FFF72FF84FF47040ADF8EF
:1018F00006000DF106022846782102230096FFF724
:1019000023F84FF45940ADF806000DF106022846C1
:10191000782102230096FFF717F84FF40850ADF82E
:1019200006000DF106022846782102230096FFF7F3
:101930000BF84FF45A40ADF806000DF106022846A8
:10194000782102230096FEF7FFFF4FF49050ADF888
:1019500006000DF106022846782102230096FEF7C4
:10196000F3FF4FF45B40ADF806000DF10602284688
:10197000782102230096FEF7E7FF0DF106022846C4
:1019800078210223ADF806800096FEF7DDFF4FF4C4
:101990000D40ADF806000DF106022846782102231D
:1019A0000096FEF7D1FF4FF4A050ADF806000DF100
:1019B00006022846782102230096FEF7C5FF4FF461
:1019C0002F40ADF806000DF10602284678210223CB
:1019D0000096FEF7B9FF4FF43850ADF806000DF150
:1019E00006022846782102230096FEF7ADFF40F25A
:1019F0008000C2F200004FF48061FEF740FC00F06E
:101A0000B5F840F27800C2F20000C0F802400124AC
:101A1000204602B0BDE8F0812DE9F04F89B040F2D8
:101A20007805C2F200056B8891F8008008EB030787
:101A30007F2F05D89C46AB884E78F7183F2F03D9E7
:101A4000002009B0BDE8F08F002E009066D02D7800
:101A50002038B5FA85F77C09B2FA82F70290780946
:101A60000790002D18BF01254868121BB2FA82F2B8
:101A7000019000275009444608950690CDE90331AE
:101A800004E000BF00240137B74247D2002CF9D050
:101A9000DA1995B23F2DF6D80298019B704303EBFB
:101AA000400030F817A002F00700012303FA00F508
:101AB0004FF4607091F8008000EA021B6FEA050E97
:101AC0000022059703E000BF0132424520D20CEB13
:101AD00002061FFA86F9B9F17F0FF5D846EA0B0620
:101AE00040F280000AFA02F1B6B2C2F20000090424
:101AF000835D0699DDE9077458BF87EA040103EAAC
:101B00000E04002918BF43EA05048455DCE700BF32
:101B10000499039B4E78059F4446B4E75FFA88F02A
:101B200040F278016044C2F2000148805DF8240B65
:101B3000BDE8F08F0378002B04BF0020704770B51C
:101B400014460D46461C00BFD8B229462246FFF770
:101B500063FF16F8011C884204D116F8013B002BE4
:101B6000F2D10021BDE87040084670472DE9F04FE2
:101B7000C1B00DF1040B40F280460BF101094FF0AA
:101B800000086FF07F050A24C2F200064FF0000A39
:101B900040F280008035C2F200002F184AF0B000F9
:101BA0008DF80500304678215A4602238DF80480CE
:101BB0000094FEF7C9FE304678215A460223ADF85C
:101BC00004800094FEF7C0FE4FF48050ADF804008E
:101BD000304678215A4602230094FEF7B5FE402095
:101BE0008DF80400484639468022FEF703FB304654
:101BF00078215A4681230094FEF7A6FEB5F5607F52
:101C00000AF1010AC4D141B0BDE8F08F704700006D
:101C1000FEF7BEBF70470000FEE7000090B0FEF781
:101C2000C5FF06AC201D2421FEF729FB02200690EB
:101C300001200A9010200B90002520460D95FFF7FB
:101C40003DF928B1EFF3108072B600BFFEE700BF88
:101C50000F20CDE9010501A80021CDE90355059527
:101C6000FFF73AF820B1EFF3108072B6FEE700BF3D
:101C700041F21800C4F20200016841F6802241F0EE
:101C800008010160006845F2004100F0080006907C
:101C9000069840F28040C2F20000C4F20001002326
:101CA0004FF48045C0F2060280E80E00C0E903351B
:101CB000C0E90533C0E90733FEF78AFC20B1EFF332
:101CC000108072B6FEE700BFFFF724FD40F2080166
:101CD00004A0C2F200010122FFF72CFFFFF746FF2C
:101CE000FEE700BF48656C6C6F20576F726C642113
:101CF00000000000000000000000000001020304DA
:101D000006070809000000000102030400000000AB
:101D100000000000000000000000000000000000C3
:101D20000010001000100010001000100000001043
:101D3000000000000028002800280000000000002B
:101D4000000000000000000000240024007C0024AB
:101D50000048007C004800480000000000380054A3
:101D600000500038001400540054003800100000E7
:101D700000200054005800300028005400140008CF
:101D80000000000000100028002800100034004867
:101D90000048003400000000001000100010000097
:101DA000000000000000000000000000000800101B
:101DB000002000200020002000200020001000084B
:101DC00000200010000800080008000800080008B3
:101DD0000010002000100038001000280000000053
:101DE00000000000000000000000000000100010D3
:101DF000007C001000100000000000000000000047
:101E000000000000000000000000001000100010A2
:101E1000000000000000000000000038000000008A
:101E200000000000000000000000000000000000B2
:101E30000000001000000000000800080010001062
:101E400000100010002000200000000000380044B6
:101E500000440054004400440044003800000000E6
:101E60000010003000500010001000100010001092
:101E70000000000000380044004400040008001086
:101E80000020007C0000000000380044000400181E
:101E9000000400040044003800000000000800189E
:101EA000002800280048007C00080008000000000E
:101EB000007C00400040007800040004004400382A
:101EC0000000000000380044004000780044004456
:101ED0000044003800000000007C000400080010EE
:101EE0000010002000200020000000000038004406
:101EF0000044003800440044004400380000000062
:101F00000038004400440044003C00040044003811
:101F100000000000000000000010000000000000B1
:101F20000000001000000000000000000000001091
:101F30000000000000000010001000100000000071
:101F4000000C003000400030000C000000000000D9
:101F5000000000000000007C0000007C0000000089
:101F600000000000000000000060001800040018DD
:101F70000060000000000000003800440004000879
:101F800000100010000000100000000000380044A5
:101F9000004C0054005C004000400038000000008D
:101FA00000100028002800280028007C004400447D
:101FB0000000000000780044004400780044004421
:101FC0000044007800000000003800440040004059
:101FD000004000400044003800000000007000484D
:101FE0000044004400440044004800700000000029
:101FF000007C00400040007C004000400040007C2D
:1020000000000000007C00400040007800400040DC
:102010000040004000000000003800440040004044
:10202000005C00440044003800000000004400440C
:102030000044007C004400440044004400000000D0
:1020400000380010001000100010001000100038C0
:102050000000000000040004000400040004000468
:1020600000440038000000000044004800500060B8
:1020700000500048004800440000000000400040BC
:1020800000400040004000400040007C0000000094
:102090000044006C006C00540044004400440044C0
:1020A0000000000000440064006400540054004C30
:1020B000004C00440000000000380044004400448C
:1020C0000044004400440038000000000078004450
:1020D0000044004400780040004000400000000040
:1020E00000380044004400440044004400540038D8
:1020F00000040000007800440044004400780048D8
:102100000048004400000000003800440040003057
:10211000000800040044003800000000007C0010AB
:10212000001000100010001000100010000000004F
:10213000004400440044004400440044004400388B
:10214000000000000044004400440028002800284B
:10215000001000100000000000440044005400542F
:102160000054006C002800280000000000440028F3
:102170000028001000100028002800440000000083
:102180000044004400280028001000100010001037
:1021900000000000007C0004000800100010002077
:1021A0000040007C0000000000180010001000102B
:1021B0000010001000100010001000180020002077
:1021C00000100010001000100008000800000000BF
:1021D000003000100010001000100010001000105F
:1021E000001000300010002800280044000000000B
:1021F00000000000000000000000000000000000DF
:102200000000000000000000000000FE00200010A0
:1022100000000000000000000000000000000000BE
:102220000000000000380044003C0044004C003432
:1022300000000000004000400058006400440044DA
:102240000064005800000000000000000038004456
:10225000004000400044003800000000000400047A
:102260000034004C00440044004C003400000000E6
:102270000000000000380044007C004000440038AA
:1022800000000000000C0010007C00100010001086
:102290000010001000000000000000000034004C9E
:1022A00000440044004C003400040078004000402A
:1022B0000058006400440044004400440000000052
:1022C000001000000070001000100010001000103E
:1022D000000000000010000000700010001000104E
:1022E00000100010001000E00040004000480050C6
:1022F0000060005000480044000000000070001022
:10230000001000100010001000100010000000006D
:1023100000000000007800540054005400540054A1
:102320000000000000000000005800640044004469
:102330000044004400000000000000000038004499
:102340000044004400440038000000000000000089
:1023500000580064004400440064005800400040FD
:10236000000000000034004C00440044004C0034E5
:102370000004000400000000005800640040004019
:102380000040004000000000000000000038004451
:102390000030000800440038000000000020002049
:1023A000007800200020002000200018000000001D
:1023B000000000000044004400440044004C00348D
:1023C0000000000000000000004400440028002835
:1023D000002800100000000000000000005400541D
:1023E0000054006C002800280000000000000000DD
:1023F00000440028001000100028004400000000E5
:1024000000000000004400440028002800100010D4
:102410000010006000000000007C00080010002098
:102420000040007C000000000018001000100010A8
:1024300000200020001000100010001800100010F4
:10244000001000100010001000100010001000100C
:1024500000300010001000100008000800100010EC
:10246000001000300000000000000074004C00006C
:10247000000000000000000001020203040506073E
:1024800008090A0B0C0D0E0F10100000B0240008F4
:10249000000000201800000050010008C8240008B7
:1024A00018000020C00A00007001000800000000B1
:1024B0000100000010000000070A00000C1D0008C9
:0824C00000127A000000000088
:04000005080000ED02
:00000001FF
